{
  "contractName": "Voting",
  "abi": [
    {
      "inputs": [],
      "payable": false,
      "stateMutability": "nonpayable",
      "type": "constructor"
    },
    {
      "constant": true,
      "inputs": [],
      "name": "candidateCount",
      "outputs": [
        {
          "internalType": "uint256",
          "name": "",
          "type": "uint256"
        }
      ],
      "payable": false,
      "stateMutability": "view",
      "type": "function"
    },
    {
      "constant": true,
      "inputs": [
        {
          "internalType": "uint256",
          "name": "",
          "type": "uint256"
        }
      ],
      "name": "candidates",
      "outputs": [
        {
          "internalType": "uint256",
          "name": "id_candidate",
          "type": "uint256"
        },
        {
          "internalType": "string",
          "name": "name",
          "type": "string"
        },
        {
          "internalType": "uint256",
          "name": "voteCount",
          "type": "uint256"
        }
      ],
      "payable": false,
      "stateMutability": "view",
      "type": "function"
    },
    {
      "constant": true,
      "inputs": [],
      "name": "electionName",
      "outputs": [
        {
          "internalType": "string",
          "name": "",
          "type": "string"
        }
      ],
      "payable": false,
      "stateMutability": "view",
      "type": "function"
    },
    {
      "constant": true,
      "inputs": [],
      "name": "endDate",
      "outputs": [
        {
          "internalType": "uint256",
          "name": "",
          "type": "uint256"
        }
      ],
      "payable": false,
      "stateMutability": "view",
      "type": "function"
    },
    {
      "constant": true,
      "inputs": [],
      "name": "ongoingElection",
      "outputs": [
        {
          "internalType": "bool",
          "name": "",
          "type": "bool"
        }
      ],
      "payable": false,
      "stateMutability": "view",
      "type": "function"
    },
    {
      "constant": true,
      "inputs": [],
      "name": "owner",
      "outputs": [
        {
          "internalType": "address payable",
          "name": "",
          "type": "address"
        }
      ],
      "payable": false,
      "stateMutability": "view",
      "type": "function"
    },
    {
      "constant": true,
      "inputs": [],
      "name": "startDate",
      "outputs": [
        {
          "internalType": "uint256",
          "name": "",
          "type": "uint256"
        }
      ],
      "payable": false,
      "stateMutability": "view",
      "type": "function"
    },
    {
      "constant": true,
      "inputs": [],
      "name": "totalVotes",
      "outputs": [
        {
          "internalType": "uint256",
          "name": "",
          "type": "uint256"
        }
      ],
      "payable": false,
      "stateMutability": "view",
      "type": "function"
    },
    {
      "constant": true,
      "inputs": [],
      "name": "voterCount",
      "outputs": [
        {
          "internalType": "uint256",
          "name": "",
          "type": "uint256"
        }
      ],
      "payable": false,
      "stateMutability": "view",
      "type": "function"
    },
    {
      "constant": true,
      "inputs": [
        {
          "internalType": "uint256",
          "name": "",
          "type": "uint256"
        }
      ],
      "name": "voters",
      "outputs": [
        {
          "internalType": "uint256",
          "name": "id_voter",
          "type": "uint256"
        },
        {
          "internalType": "address",
          "name": "voter_address",
          "type": "address"
        },
        {
          "internalType": "address",
          "name": "delegate",
          "type": "address"
        },
        {
          "internalType": "bool",
          "name": "authorized",
          "type": "bool"
        },
        {
          "internalType": "uint256",
          "name": "weight",
          "type": "uint256"
        },
        {
          "internalType": "uint256",
          "name": "vote",
          "type": "uint256"
        },
        {
          "internalType": "bool",
          "name": "voted",
          "type": "bool"
        }
      ],
      "payable": false,
      "stateMutability": "view",
      "type": "function"
    },
    {
      "constant": true,
      "inputs": [
        {
          "internalType": "address",
          "name": "",
          "type": "address"
        }
      ],
      "name": "votersList",
      "outputs": [
        {
          "internalType": "uint256",
          "name": "id_voter",
          "type": "uint256"
        },
        {
          "internalType": "address",
          "name": "voter_address",
          "type": "address"
        },
        {
          "internalType": "address",
          "name": "delegate",
          "type": "address"
        },
        {
          "internalType": "bool",
          "name": "authorized",
          "type": "bool"
        },
        {
          "internalType": "uint256",
          "name": "weight",
          "type": "uint256"
        },
        {
          "internalType": "uint256",
          "name": "vote",
          "type": "uint256"
        },
        {
          "internalType": "bool",
          "name": "voted",
          "type": "bool"
        }
      ],
      "payable": false,
      "stateMutability": "view",
      "type": "function"
    },
    {
      "constant": false,
      "inputs": [
        {
          "internalType": "string",
          "name": "_electionName",
          "type": "string"
        },
        {
          "internalType": "uint256",
          "name": "_startDate",
          "type": "uint256"
        },
        {
          "internalType": "uint256",
          "name": "_endDate",
          "type": "uint256"
        }
      ],
      "name": "createElection",
      "outputs": [],
      "payable": false,
      "stateMutability": "nonpayable",
      "type": "function"
    },
    {
      "constant": true,
      "inputs": [],
      "name": "getElection",
      "outputs": [
        {
          "internalType": "string",
          "name": "_electionName",
          "type": "string"
        },
        {
          "internalType": "uint256",
          "name": "_startDate",
          "type": "uint256"
        },
        {
          "internalType": "uint256",
          "name": "_endDate",
          "type": "uint256"
        },
        {
          "internalType": "bool",
          "name": "_ongoingElection",
          "type": "bool"
        }
      ],
      "payable": false,
      "stateMutability": "view",
      "type": "function"
    },
    {
      "constant": false,
      "inputs": [
        {
          "internalType": "string",
          "name": "_name",
          "type": "string"
        }
      ],
      "name": "addCandidate",
      "outputs": [],
      "payable": false,
      "stateMutability": "nonpayable",
      "type": "function"
    },
    {
      "constant": true,
      "inputs": [
        {
          "internalType": "uint256",
          "name": "_index",
          "type": "uint256"
        }
      ],
      "name": "getCandidate",
      "outputs": [
        {
          "internalType": "string",
          "name": "name",
          "type": "string"
        },
        {
          "internalType": "uint256",
          "name": "voteCount",
          "type": "uint256"
        }
      ],
      "payable": false,
      "stateMutability": "view",
      "type": "function"
    },
    {
      "constant": true,
      "inputs": [],
      "name": "getNumberCandidates",
      "outputs": [
        {
          "internalType": "uint256",
          "name": "",
          "type": "uint256"
        }
      ],
      "payable": false,
      "stateMutability": "view",
      "type": "function"
    },
    {
      "constant": false,
      "inputs": [
        {
          "internalType": "address",
          "name": "_voter_address",
          "type": "address"
        }
      ],
      "name": "addVoter",
      "outputs": [],
      "payable": false,
      "stateMutability": "nonpayable",
      "type": "function"
    },
    {
      "constant": true,
      "inputs": [
        {
          "internalType": "uint256",
          "name": "_index",
          "type": "uint256"
        }
      ],
      "name": "getVoter",
      "outputs": [
        {
          "internalType": "uint256",
          "name": "_id_voter",
          "type": "uint256"
        },
        {
          "internalType": "address",
          "name": "voter_address",
          "type": "address"
        },
        {
          "internalType": "bool",
          "name": "authorized",
          "type": "bool"
        },
        {
          "internalType": "uint256",
          "name": "weight",
          "type": "uint256"
        },
        {
          "internalType": "uint256",
          "name": "vote",
          "type": "uint256"
        },
        {
          "internalType": "bool",
          "name": "voted",
          "type": "bool"
        }
      ],
      "payable": false,
      "stateMutability": "view",
      "type": "function"
    },
    {
      "constant": true,
      "inputs": [],
      "name": "getNumberVoters",
      "outputs": [
        {
          "internalType": "uint256",
          "name": "",
          "type": "uint256"
        }
      ],
      "payable": false,
      "stateMutability": "view",
      "type": "function"
    },
    {
      "constant": true,
      "inputs": [],
      "name": "getVotes",
      "outputs": [
        {
          "internalType": "uint256",
          "name": "",
          "type": "uint256"
        }
      ],
      "payable": false,
      "stateMutability": "view",
      "type": "function"
    },
    {
      "constant": false,
      "inputs": [
        {
          "internalType": "uint256",
          "name": "_index",
          "type": "uint256"
        }
      ],
      "name": "toggleAuthorization",
      "outputs": [],
      "payable": false,
      "stateMutability": "nonpayable",
      "type": "function"
    },
    {
      "constant": false,
      "inputs": [
        {
          "internalType": "uint256",
          "name": "_voteIndex",
          "type": "uint256"
        }
      ],
      "name": "vote",
      "outputs": [],
      "payable": false,
      "stateMutability": "nonpayable",
      "type": "function"
    },
    {
      "constant": false,
      "inputs": [
        {
          "internalType": "address",
          "name": "to",
          "type": "address"
        }
      ],
      "name": "delegateVote",
      "outputs": [],
      "payable": false,
      "stateMutability": "nonpayable",
      "type": "function"
    },
    {
      "constant": false,
      "inputs": [],
      "name": "end",
      "outputs": [],
      "payable": false,
      "stateMutability": "nonpayable",
      "type": "function"
    }
  ],
  "bytecode": "0x608060405234801561001057600080fd5b5033600660006101000a81548173ffffffffffffffffffffffffffffffffffffffff021916908373ffffffffffffffffffffffffffffffffffffffff1602179055506000600860006101000a81548160ff021916908315150217905550611ee18061007c6000396000f3fe608060405234801561001057600080fd5b50600436106101585760003560e01c80638da5cb5b116100c3578063d07bff0c1161007c578063d07bff0c146106dc578063da58c7d914610775578063eceed33914610841578063efbe1c1c146108dd578063f49a7a17146108e7578063f4ab9adf146109b657610158565b80638da5cb5b146105c2578063a9a981a31461060c578063b1972a7e1461062a578063b31e1d4d14610658578063c24a0f8b1461069c578063c880a6b9146106ba57610158565b806335b8e8201161011557806335b8e820146102b857806342169e4814610366578063443019fe14610384578063462e91ec14610466578063493f584c1461052157806385e8e7a71461053f57610158565b80630121b93f1461015d57806301ed738b1461018b5780630b97bc86146101a95780630d15fd77146101c75780630dc96015146101e55780633477ee2e14610203575b600080fd5b6101896004803603602081101561017357600080fd5b81019080803590602001909291905050506109fa565b005b610193610c69565b6040518082815260200191505060405180910390f35b6101b1610c73565b6040518082815260200191505060405180910390f35b6101cf610c79565b6040518082815260200191505060405180910390f35b6101ed610c7f565b6040518082815260200191505060405180910390f35b61022f6004803603602081101561021957600080fd5b8101908080359060200190929190505050610c89565b6040518084815260200180602001838152602001828103825284818151815260200191508051906020019080838360005b8381101561027b578082015181840152602081019050610260565b50505050905090810190601f1680156102a85780820380516001836020036101000a031916815260200191505b5094505050505060405180910390f35b6102e4600480360360208110156102ce57600080fd5b8101908080359060200190929190505050610d4b565b6040518080602001838152602001828103825284818151815260200191508051906020019080838360005b8381101561032a57808201518184015260208101905061030f565b50505050905090810190601f1680156103575780820380516001836020036101000a031916815260200191505b50935050505060405180910390f35b61036e610e1f565b6040518082815260200191505060405180910390f35b6103c66004803603602081101561039a57600080fd5b81019080803573ffffffffffffffffffffffffffffffffffffffff169060200190929190505050610e25565b604051808881526020018773ffffffffffffffffffffffffffffffffffffffff1673ffffffffffffffffffffffffffffffffffffffff1681526020018673ffffffffffffffffffffffffffffffffffffffff1673ffffffffffffffffffffffffffffffffffffffff168152602001851515151581526020018481526020018381526020018215151515815260200197505050505050505060405180910390f35b61051f6004803603602081101561047c57600080fd5b810190808035906020019064010000000081111561049957600080fd5b8201836020820111156104ab57600080fd5b803590602001918460018302840111640100000000831117156104cd57600080fd5b91908080601f016020809104026020016040519081016040528093929190818152602001838380828437600081840152601f19601f820116905080830192505050505050509192919290505050610ec1565b005b610529610fff565b6040518082815260200191505060405180910390f35b610547611009565b6040518080602001828103825283818151815260200191508051906020019080838360005b8381101561058757808201518184015260208101905061056c565b50505050905090810190601f1680156105b45780820380516001836020036101000a031916815260200191505b509250505060405180910390f35b6105ca6110a7565b604051808273ffffffffffffffffffffffffffffffffffffffff1673ffffffffffffffffffffffffffffffffffffffff16815260200191505060405180910390f35b6106146110cd565b6040518082815260200191505060405180910390f35b6106566004803603602081101561064057600080fd5b81019080803590602001909291905050506110d3565b005b61069a6004803603602081101561066e57600080fd5b81019080803573ffffffffffffffffffffffffffffffffffffffff1690602001909291905050506111c8565b005b6106a46115db565b6040518082815260200191505060405180910390f35b6106c26115e1565b604051808215151515815260200191505060405180910390f35b610708600480360360208110156106f257600080fd5b81019080803590602001909291905050506115f4565b604051808781526020018673ffffffffffffffffffffffffffffffffffffffff1673ffffffffffffffffffffffffffffffffffffffff1681526020018515151515815260200184815260200183815260200182151515158152602001965050505050505060405180910390f35b6107a16004803603602081101561078b57600080fd5b81019080803590602001909291905050506116d6565b604051808881526020018773ffffffffffffffffffffffffffffffffffffffff1673ffffffffffffffffffffffffffffffffffffffff1681526020018673ffffffffffffffffffffffffffffffffffffffff1673ffffffffffffffffffffffffffffffffffffffff168152602001851515151581526020018481526020018381526020018215151515815260200197505050505050505060405180910390f35b610849611772565b604051808060200185815260200184815260200183151515158152602001828103825286818151815260200191508051906020019080838360005b8381101561089f578082015181840152602081019050610884565b50505050905090810190601f1680156108cc5780820380516001836020036101000a031916815260200191505b509550505050505060405180910390f35b6108e561183b565b005b6109b4600480360360608110156108fd57600080fd5b810190808035906020019064010000000081111561091a57600080fd5b82018360208201111561092c57600080fd5b8035906020019184600183028401116401000000008311171561094e57600080fd5b91908080601f016020809104026020016040519081016040528093929190818152602001838380828437600081840152601f19601f8201169050808301925050505050505091929192908035906020019092919080359060200190929190505050611939565b005b6109f8600480360360208110156109cc57600080fd5b81019080803573ffffffffffffffffffffffffffffffffffffffff16906020019092919050505061197e565b005b6000600360003373ffffffffffffffffffffffffffffffffffffffff1673ffffffffffffffffffffffffffffffffffffffff16815260200190815260200160002090508060050160009054906101000a900460ff1615610ac2576040517f08c379a000000000000000000000000000000000000000000000000000000000815260040180806020018281038252600e8152602001807f416c726561647920766f7465642e00000000000000000000000000000000000081525060200191505060405180910390fd5b81600260008481526020019081526020016000206004018190555060016002600084815260200190815260200160002060050160006101000a81548160ff02191690831515021790555081600360003373ffffffffffffffffffffffffffffffffffffffff1673ffffffffffffffffffffffffffffffffffffffff168152602001908152602001600020600401819055506001600360003373ffffffffffffffffffffffffffffffffffffffff1673ffffffffffffffffffffffffffffffffffffffff16815260200190815260200160002060050160006101000a81548160ff021916908315150217905550600360003373ffffffffffffffffffffffffffffffffffffffff1673ffffffffffffffffffffffffffffffffffffffff1681526020019081526020016000206003015460008084815260200190815260200160002060020160008282540192505081905550600360003373ffffffffffffffffffffffffffffffffffffffff1673ffffffffffffffffffffffffffffffffffffffff168152602001908152602001600020600301546005600082825401925050819055505050565b6000600454905090565b60095481565b60055481565b6000600554905090565b6000602052806000526040600020600091509050806000015490806001018054600181600116156101000203166002900480601f016020809104026020016040519081016040528092919081815260200182805460018160011615610100020316600290048015610d3b5780601f10610d1057610100808354040283529160200191610d3b565b820191906000526020600020905b815481529060010190602001808311610d1e57829003601f168201915b5050505050908060020154905083565b6060600080600084815260200190815260200160002060010160008085815260200190815260200160002060020154818054600181600116156101000203166002900480601f016020809104026020016040519081016040528092919081815260200182805460018160011615610100020316600290048015610e0f5780601f10610de457610100808354040283529160200191610e0f565b820191906000526020600020905b815481529060010190602001808311610df257829003601f168201915b5050505050915091509150915091565b60045481565b60036020528060005260406000206000915090508060000154908060010160009054906101000a900473ffffffffffffffffffffffffffffffffffffffff16908060020160009054906101000a900473ffffffffffffffffffffffffffffffffffffffff16908060020160149054906101000a900460ff16908060030154908060040154908060050160009054906101000a900460ff16905087565b600660009054906101000a900473ffffffffffffffffffffffffffffffffffffffff1673ffffffffffffffffffffffffffffffffffffffff163373ffffffffffffffffffffffffffffffffffffffff1614610f84576040517f08c379a000000000000000000000000000000000000000000000000000000000815260040180806020018281038252600f8152602001807f4e6f7420617574686f72697a65642e000000000000000000000000000000000081525060200191505060405180910390fd5b6040518060600160405280600154815260200182815260200160008152506000806001548152602001908152602001600020600082015181600001556020820151816001019080519060200190610fdc929190611d87565b506040820151816002015590505060016000815480929190600101919050555050565b6000600154905090565b60078054600181600116156101000203166002900480601f01602080910402602001604051908101604052809291908181526020018280546001816001161561010002031660029004801561109f5780601f106110745761010080835404028352916020019161109f565b820191906000526020600020905b81548152906001019060200180831161108257829003601f168201915b505050505081565b600660009054906101000a900473ffffffffffffffffffffffffffffffffffffffff1681565b60015481565b600660009054906101000a900473ffffffffffffffffffffffffffffffffffffffff1673ffffffffffffffffffffffffffffffffffffffff163373ffffffffffffffffffffffffffffffffffffffff1614611196576040517f08c379a000000000000000000000000000000000000000000000000000000000815260040180806020018281038252600f8152602001807f4e6f7420617574686f72697a65642e000000000000000000000000000000000081525060200191505060405180910390fd5b60016002600083815260200190815260200160002060020160146101000a81548160ff02191690831515021790555050565b6000600360003373ffffffffffffffffffffffffffffffffffffffff1673ffffffffffffffffffffffffffffffffffffffff16815260200190815260200160002090508060050160009054906101000a900460ff1615611290576040517f08c379a00000000000000000000000000000000000000000000000000000000081526004018080602001828103825260128152602001807f596f7520616c726561647920766f7465642e000000000000000000000000000081525060200191505060405180910390fd5b3373ffffffffffffffffffffffffffffffffffffffff168273ffffffffffffffffffffffffffffffffffffffff161415611332576040517f08c379a000000000000000000000000000000000000000000000000000000000815260040180806020018281038252601e8152602001807f53656c662d64656c65676174696f6e20697320646973616c6c6f7765642e000081525060200191505060405180910390fd5b5b600073ffffffffffffffffffffffffffffffffffffffff16600360008473ffffffffffffffffffffffffffffffffffffffff1673ffffffffffffffffffffffffffffffffffffffff16815260200190815260200160002060020160009054906101000a900473ffffffffffffffffffffffffffffffffffffffff1673ffffffffffffffffffffffffffffffffffffffff16146114d557600360008373ffffffffffffffffffffffffffffffffffffffff1673ffffffffffffffffffffffffffffffffffffffff16815260200190815260200160002060020160009054906101000a900473ffffffffffffffffffffffffffffffffffffffff1691503373ffffffffffffffffffffffffffffffffffffffff168273ffffffffffffffffffffffffffffffffffffffff1614156114d0576040517f08c379a00000000000000000000000000000000000000000000000000000000081526004018080602001828103825260198152602001807f466f756e64206c6f6f7020696e2064656c65676174696f6e2e0000000000000081525060200191505060405180910390fd5b611333565b60018160050160006101000a81548160ff021916908315150217905550818160020160006101000a81548173ffffffffffffffffffffffffffffffffffffffff021916908373ffffffffffffffffffffffffffffffffffffffff1602179055506000600360008473ffffffffffffffffffffffffffffffffffffffff1673ffffffffffffffffffffffffffffffffffffffff16815260200190815260200160002090508060050160009054906101000a900460ff16156115bf57816003015460008083600401548152602001908152602001600020600201600082825401925050819055506115d6565b816003015481600301600082825401925050819055505b505050565b600a5481565b600860009054906101000a900460ff1681565b60008060008060008060026000888152602001908152602001600020600001546002600089815260200190815260200160002060010160009054906101000a900473ffffffffffffffffffffffffffffffffffffffff16600260008a815260200190815260200160002060020160149054906101000a900460ff16600260008b815260200190815260200160002060030154600260008c815260200190815260200160002060040154600260008d815260200190815260200160002060050160009054906101000a900460ff1695509550955095509550955091939550919395565b60026020528060005260406000206000915090508060000154908060010160009054906101000a900473ffffffffffffffffffffffffffffffffffffffff16908060020160009054906101000a900473ffffffffffffffffffffffffffffffffffffffff16908060020160149054906101000a900460ff16908060030154908060040154908060050160009054906101000a900460ff16905087565b606060008060006007600954600a54600860009054906101000a900460ff16838054600181600116156101000203166002900480601f0160208091040260200160405190810160405280929190818152602001828054600181600116156101000203166002900480156118265780601f106117fb57610100808354040283529160200191611826565b820191906000526020600020905b81548152906001019060200180831161180957829003601f168201915b50505050509350935093509350935090919293565b600660009054906101000a900473ffffffffffffffffffffffffffffffffffffffff1673ffffffffffffffffffffffffffffffffffffffff163373ffffffffffffffffffffffffffffffffffffffff16146118fe576040517f08c379a000000000000000000000000000000000000000000000000000000000815260040180806020018281038252600f8152602001807f4e6f7420617574686f72697a65642e000000000000000000000000000000000081525060200191505060405180910390fd5b600660009054906101000a900473ffffffffffffffffffffffffffffffffffffffff1673ffffffffffffffffffffffffffffffffffffffff16ff5b826007908051906020019061194f929190611e07565b5080600a81905550816009819055506001600860006101000a81548160ff021916908315150217905550505050565b600660009054906101000a900473ffffffffffffffffffffffffffffffffffffffff1673ffffffffffffffffffffffffffffffffffffffff163373ffffffffffffffffffffffffffffffffffffffff1614611a41576040517f08c379a000000000000000000000000000000000000000000000000000000000815260040180806020018281038252600f8152602001807f4e6f7420617574686f72697a65642e000000000000000000000000000000000081525060200191505060405180910390fd5b600360008273ffffffffffffffffffffffffffffffffffffffff1673ffffffffffffffffffffffffffffffffffffffff16815260200190815260200160002060050160009054906101000a900460ff1615611b04576040517f08c379a00000000000000000000000000000000000000000000000000000000081526004018080602001828103825260188152602001807f54686520766f74657220616c726561647920766f7465642e000000000000000081525060200191505060405180910390fd5b6000600360008373ffffffffffffffffffffffffffffffffffffffff1673ffffffffffffffffffffffffffffffffffffffff1681526020019081526020016000206003015414611bbc576040517f08c379a00000000000000000000000000000000000000000000000000000000081526004018080602001828103825260098152602001807f4e6f20776569676874000000000000000000000000000000000000000000000081525060200191505060405180910390fd5b6040518060e0016040528060045481526020018273ffffffffffffffffffffffffffffffffffffffff168152602001600073ffffffffffffffffffffffffffffffffffffffff1681526020016001151581526020016001815260200160008152602001600015158152506002600060045481526020019081526020016000206000820151816000015560208201518160010160006101000a81548173ffffffffffffffffffffffffffffffffffffffff021916908373ffffffffffffffffffffffffffffffffffffffff16021790555060408201518160020160006101000a81548173ffffffffffffffffffffffffffffffffffffffff021916908373ffffffffffffffffffffffffffffffffffffffff16021790555060608201518160020160146101000a81548160ff0219169083151502179055506080820151816003015560a0820151816004015560c08201518160050160006101000a81548160ff0219169083151502179055509050506001600360008373ffffffffffffffffffffffffffffffffffffffff1673ffffffffffffffffffffffffffffffffffffffff1681526020019081526020016000206003018190555060046000815480929190600101919050555050565b828054600181600116156101000203166002900490600052602060002090601f016020900481019282601f10611dc857805160ff1916838001178555611df6565b82800160010185558215611df6579182015b82811115611df5578251825591602001919060010190611dda565b5b509050611e039190611e87565b5090565b828054600181600116156101000203166002900490600052602060002090601f016020900481019282601f10611e4857805160ff1916838001178555611e76565b82800160010185558215611e76579182015b82811115611e75578251825591602001919060010190611e5a565b5b509050611e839190611e87565b5090565b611ea991905b80821115611ea5576000816000905550600101611e8d565b5090565b9056fea265627a7a7231582036deb3dde8e7658b2419f2b78d37e099577d20aea021408df4faff57008e3e8e64736f6c63430005100032",
  "source": "pragma solidity >=0.5.0 <0.7.0;\r\n\r\n\r\ncontract Voting {\r\n    /* <------ VARIABLES ------>*/\r\n    struct Candidate {\r\n        uint256 id_candidate;\r\n        string name;\r\n        uint256 voteCount;\r\n    }\r\n    mapping(uint256 => Candidate) public candidates;\r\n    uint256 public candidateCount;\r\n\r\n    struct Voter {\r\n        uint256 id_voter;\r\n        address voter_address;\r\n        address delegate;\r\n        bool authorized;\r\n        uint256 weight;\r\n        uint256 vote;\r\n        bool voted;\r\n    }\r\n    mapping(uint256 => Voter) public voters;\r\n    mapping(address => Voter) public votersList;\r\n\r\n    uint256 public voterCount;\r\n\r\n    uint256 public totalVotes;\r\n\r\n    address payable public owner;\r\n\r\n    string public electionName;\r\n    bool public ongoingElection;\r\n    uint256 public startDate;\r\n    uint256 public endDate;\r\n\r\n    // Candidate[] public candidates;\r\n\r\n    /* <------ CONSTRUCTOR ------>*/\r\n    constructor() public {\r\n        owner = msg.sender;\r\n        ongoingElection = false;\r\n    }\r\n\r\n    /* <------ MODIFIERS ------>*/\r\n    modifier ownerOnly() {\r\n        require(msg.sender == owner, \"Not authorized.\");\r\n        _;\r\n    }\r\n\r\n    modifier checkElection() {\r\n        _;\r\n        bytes memory tmpElectionName = bytes(electionName);\r\n        require(tmpElectionName.length != 0, \"Please enter an election name\");\r\n        require(startDate > 0, \"Please enter an end date for your election\");\r\n        require(endDate > 0, \"Please enter an end date for your election\");\r\n    }\r\n\r\n    /* <------ FUNCTIONS ------>*/\r\n    function createElection(\r\n        string memory _electionName,\r\n        uint256 _startDate,\r\n        uint256 _endDate\r\n    ) public {\r\n        electionName = _electionName;\r\n        endDate = _endDate;\r\n        startDate = _startDate;\r\n        ongoingElection = true;\r\n    }\r\n\r\n    function getElection()\r\n        public\r\n        view\r\n        returns (\r\n            string memory _electionName,\r\n            uint256 _startDate,\r\n            uint256 _endDate,\r\n            bool _ongoingElection\r\n        )\r\n    {\r\n        return (electionName, startDate, endDate, ongoingElection);\r\n    }\r\n\r\n    function addCandidate(string memory _name) public ownerOnly {\r\n        candidates[candidateCount] = Candidate(candidateCount, _name, 0);\r\n        candidateCount++;\r\n    }\r\n\r\n    function getCandidate(uint256 _index)\r\n        public\r\n        view\r\n        returns (string memory name, uint256 voteCount)\r\n    {\r\n        return (candidates[_index].name, candidates[_index].voteCount);\r\n    }\r\n\r\n    function getNumberCandidates() public view returns (uint256) {\r\n        return candidateCount;\r\n    }\r\n\r\n    function addVoter(address _voter_address) public ownerOnly {\r\n        require(!votersList[_voter_address].voted, \"The voter already voted.\");\r\n        require(votersList[_voter_address].weight == 0, \"No weight\");\r\n        voters[voterCount] = Voter({\r\n            id_voter: voterCount,\r\n            voter_address: _voter_address,\r\n            authorized: true,\r\n            weight: 1,\r\n            vote: 0,\r\n            voted: false,\r\n            delegate: address(0)\r\n        });\r\n        votersList[_voter_address].weight = 1;\r\n        voterCount++;\r\n    }\r\n\r\n    function getVoter(uint256 _index)\r\n        public\r\n        view\r\n        returns (\r\n            uint256 _id_voter,\r\n            address voter_address,\r\n            bool authorized,\r\n            uint256 weight,\r\n            uint256 vote,\r\n            bool voted\r\n        )\r\n    {\r\n        return (\r\n            voters[_index].id_voter,\r\n            voters[_index].voter_address,\r\n            voters[_index].authorized,\r\n            voters[_index].weight,\r\n            voters[_index].vote,\r\n            voters[_index].voted\r\n        );\r\n    }\r\n\r\n    function getNumberVoters() public view returns (uint256) {\r\n        return voterCount;\r\n    }\r\n\r\n    function getVotes() public view returns (uint256) {\r\n        return totalVotes;\r\n    }\r\n\r\n    function toggleAuthorization(uint256 _index) public ownerOnly {\r\n        voters[_index].authorized = true;\r\n    }\r\n\r\n    function vote(uint256 _voteIndex) public {\r\n        Voter storage sender = votersList[msg.sender];\r\n        require(!sender.voted, \"Already voted.\");\r\n        /* require(voters[_voteIndex].weight > 0, \"Already voted\");\r\n        require(voters[_voteIndex].authorized, \"Not authorized to vote\");\r\n        require(\r\n            ongoingElection,\r\n            \"The election has ended or has not started yet\"\r\n        );\r\n */\r\n        voters[_voteIndex].vote = _voteIndex;\r\n        voters[_voteIndex].voted = true;\r\n\r\n        votersList[msg.sender].vote = _voteIndex;\r\n        votersList[msg.sender].voted = true;\r\n\r\n        candidates[_voteIndex].voteCount += votersList[msg.sender].weight;\r\n        totalVotes += votersList[msg.sender].weight;\r\n    }\r\n\r\n    function delegateVote(address to) public {\r\n        // assigns reference\r\n        Voter storage sender = votersList[msg.sender];\r\n        require(!sender.voted, \"You already voted.\");\r\n\r\n        require(to != msg.sender, \"Self-delegation is disallowed.\");\r\n\r\n        // Forward the delegation as long as\r\n        // `to` also delegated.\r\n        while (votersList[to].delegate != address(0)) {\r\n            to = votersList[to].delegate;\r\n\r\n            // We found a loop in the delegation, not allowed.\r\n            require(to != msg.sender, \"Found loop in delegation.\");\r\n        }\r\n\r\n        // Since `sender` is a reference, this\r\n        // modifies `voters[msg.sender].voted`\r\n        sender.voted = true;\r\n        sender.delegate = to;\r\n        Voter storage delegate_ = votersList[to];\r\n        if (delegate_.voted) {\r\n            // If the delegate already voted,\r\n            // directly add to the number of votes\r\n            candidates[delegate_.vote].voteCount += sender.weight;\r\n        } else {\r\n            // If the delegate did not vote yet,\r\n            // add to her weight.\r\n            delegate_.weight += sender.weight;\r\n        }\r\n    }\r\n\r\n    function end() public ownerOnly {\r\n        selfdestruct(owner);\r\n    }\r\n}\r\n",
  "sourcePath": "D:\\Projects\\voting-blockchain\\contracts\\Voting.sol",
  "compiler": {
    "name": "solc",
    "version": "0.5.16+commit.9c3226ce.Emscripten.clang"
  },
  "schemaVersion": "3.0.23",
  "updatedAt": "2020-04-05T14:16:51.704Z",
  "networkType": "ethereum",
  "devdoc": {
    "methods": {}
  },
  "userdoc": {
    "methods": {}
  }
}