{
  "contractName": "Voting",
  "abi": [
    {
      "inputs": [],
      "payable": false,
      "stateMutability": "nonpayable",
      "type": "constructor"
    },
    {
      "constant": true,
      "inputs": [
        {
          "internalType": "uint256",
          "name": "",
          "type": "uint256"
        }
      ],
      "name": "candidates",
      "outputs": [
        {
          "internalType": "string",
          "name": "name",
          "type": "string"
        },
        {
          "internalType": "uint256",
          "name": "voteCount",
          "type": "uint256"
        }
      ],
      "payable": false,
      "stateMutability": "view",
      "type": "function"
    },
    {
      "constant": true,
      "inputs": [],
      "name": "electionName",
      "outputs": [
        {
          "internalType": "string",
          "name": "",
          "type": "string"
        }
      ],
      "payable": false,
      "stateMutability": "view",
      "type": "function"
    },
    {
      "constant": true,
      "inputs": [],
      "name": "endDate",
      "outputs": [
        {
          "internalType": "uint256",
          "name": "",
          "type": "uint256"
        }
      ],
      "payable": false,
      "stateMutability": "view",
      "type": "function"
    },
    {
      "constant": true,
      "inputs": [],
      "name": "ongoingElection",
      "outputs": [
        {
          "internalType": "bool",
          "name": "",
          "type": "bool"
        }
      ],
      "payable": false,
      "stateMutability": "view",
      "type": "function"
    },
    {
      "constant": true,
      "inputs": [],
      "name": "owner",
      "outputs": [
        {
          "internalType": "address payable",
          "name": "",
          "type": "address"
        }
      ],
      "payable": false,
      "stateMutability": "view",
      "type": "function"
    },
    {
      "constant": true,
      "inputs": [],
      "name": "totalVotes",
      "outputs": [
        {
          "internalType": "uint256",
          "name": "",
          "type": "uint256"
        }
      ],
      "payable": false,
      "stateMutability": "view",
      "type": "function"
    },
    {
      "constant": true,
      "inputs": [
        {
          "internalType": "address",
          "name": "",
          "type": "address"
        }
      ],
      "name": "voters",
      "outputs": [
        {
          "internalType": "string",
          "name": "name",
          "type": "string"
        },
        {
          "internalType": "string",
          "name": "email",
          "type": "string"
        },
        {
          "internalType": "string",
          "name": "password",
          "type": "string"
        },
        {
          "internalType": "bool",
          "name": "authorized",
          "type": "bool"
        },
        {
          "internalType": "bool",
          "name": "voted",
          "type": "bool"
        },
        {
          "internalType": "uint256",
          "name": "vote",
          "type": "uint256"
        }
      ],
      "payable": false,
      "stateMutability": "view",
      "type": "function"
    },
    {
      "constant": true,
      "inputs": [
        {
          "internalType": "uint256",
          "name": "",
          "type": "uint256"
        }
      ],
      "name": "votersList",
      "outputs": [
        {
          "internalType": "string",
          "name": "name",
          "type": "string"
        },
        {
          "internalType": "string",
          "name": "email",
          "type": "string"
        },
        {
          "internalType": "string",
          "name": "password",
          "type": "string"
        },
        {
          "internalType": "bool",
          "name": "authorized",
          "type": "bool"
        },
        {
          "internalType": "bool",
          "name": "voted",
          "type": "bool"
        },
        {
          "internalType": "uint256",
          "name": "vote",
          "type": "uint256"
        }
      ],
      "payable": false,
      "stateMutability": "view",
      "type": "function"
    },
    {
      "constant": false,
      "inputs": [
        {
          "internalType": "string",
          "name": "_electionName",
          "type": "string"
        },
        {
          "internalType": "uint256",
          "name": "_date",
          "type": "uint256"
        }
      ],
      "name": "startElection",
      "outputs": [],
      "payable": false,
      "stateMutability": "nonpayable",
      "type": "function"
    },
    {
      "constant": false,
      "inputs": [
        {
          "internalType": "string",
          "name": "_name",
          "type": "string"
        }
      ],
      "name": "addCandidate",
      "outputs": [],
      "payable": false,
      "stateMutability": "nonpayable",
      "type": "function"
    },
    {
      "constant": false,
      "inputs": [],
      "name": "removeCandidate",
      "outputs": [],
      "payable": false,
      "stateMutability": "nonpayable",
      "type": "function"
    },
    {
      "constant": false,
      "inputs": [
        {
          "internalType": "string",
          "name": "_name",
          "type": "string"
        },
        {
          "internalType": "string",
          "name": "_email",
          "type": "string"
        },
        {
          "internalType": "string",
          "name": "_password",
          "type": "string"
        }
      ],
      "name": "addVoter",
      "outputs": [],
      "payable": false,
      "stateMutability": "nonpayable",
      "type": "function"
    },
    {
      "constant": true,
      "inputs": [],
      "name": "getNumberCandidates",
      "outputs": [
        {
          "internalType": "uint256",
          "name": "",
          "type": "uint256"
        }
      ],
      "payable": false,
      "stateMutability": "view",
      "type": "function"
    },
    {
      "constant": false,
      "inputs": [
        {
          "internalType": "address",
          "name": "_person",
          "type": "address"
        }
      ],
      "name": "authorize",
      "outputs": [],
      "payable": false,
      "stateMutability": "nonpayable",
      "type": "function"
    },
    {
      "constant": false,
      "inputs": [
        {
          "internalType": "uint256",
          "name": "_voteIndex",
          "type": "uint256"
        }
      ],
      "name": "vote",
      "outputs": [],
      "payable": false,
      "stateMutability": "nonpayable",
      "type": "function"
    },
    {
      "constant": false,
      "inputs": [],
      "name": "end",
      "outputs": [],
      "payable": false,
      "stateMutability": "nonpayable",
      "type": "function"
    }
  ],
  "bytecode": "0x608060405234801561001057600080fd5b50336000806101000a81548173ffffffffffffffffffffffffffffffffffffffff021916908373ffffffffffffffffffffffffffffffffffffffff1602179055506000600260006101000a81548160ff021916908315150217905550611d1a8061007b6000396000f3fe608060405234801561001057600080fd5b50600436106101005760003560e01c806385e8e7a711610097578063b6a5d7de11610066578063b6a5d7de146109ab578063c24a0f8b146109ef578063c880a6b914610a0d578063efbe1c1c14610a2f57610100565b806385e8e7a7146106675780638da5cb5b146106ea5780639bdc8e1514610734578063a3ec138d146107f957610100565b80633ec2a019116100d35780633ec2a01914610209578063462e91ec146103f2578063493f584c146104ad57806372ce73ab146104cb57610100565b80630121b93f146101055780630d15fd77146101335780631d1673bc146101515780633477ee2e1461015b575b600080fd5b6101316004803603602081101561011b57600080fd5b8101908080359060200190929190505050610a39565b005b61013b610d06565b6040518082815260200191505060405180910390f35b610159610d0c565b005b6101876004803603602081101561017157600080fd5b8101908080359060200190929190505050610d4a565b6040518080602001838152602001828103825284818151815260200191508051906020019080838360005b838110156101cd5780820151818401526020810190506101b2565b50505050905090810190601f1680156101fa5780820380516001836020036101000a031916815260200191505b50935050505060405180910390f35b6103f06004803603606081101561021f57600080fd5b810190808035906020019064010000000081111561023c57600080fd5b82018360208201111561024e57600080fd5b8035906020019184600183028401116401000000008311171561027057600080fd5b91908080601f016020809104026020016040519081016040528093929190818152602001838380828437600081840152601f19601f820116905080830192505050505050509192919290803590602001906401000000008111156102d357600080fd5b8201836020820111156102e557600080fd5b8035906020019184600183028401116401000000008311171561030757600080fd5b91908080601f016020809104026020016040519081016040528093929190818152602001838380828437600081840152601f19601f8201169050808301925050505050505091929192908035906020019064010000000081111561036a57600080fd5b82018360208201111561037c57600080fd5b8035906020019184600183028401116401000000008311171561039e57600080fd5b91908080601f016020809104026020016040519081016040528093929190818152602001838380828437600081840152601f19601f820116905080830192505050505050509192919290505050610e13565b005b6104ab6004803603602081101561040857600080fd5b810190808035906020019064010000000081111561042557600080fd5b82018360208201111561043757600080fd5b8035906020019184600183028401116401000000008311171561045957600080fd5b91908080601f016020809104026020016040519081016040528093929190818152602001838380828437600081840152601f19601f820116905080830192505050505050509192919290505050610fdf565b005b6104b5611111565b6040518082815260200191505060405180910390f35b6104f7600480360360208110156104e157600080fd5b810190808035906020019092919050505061111e565b60405180806020018060200180602001871515151581526020018615151515815260200185815260200184810384528a818151815260200191508051906020019080838360005b8381101561055957808201518184015260208101905061053e565b50505050905090810190601f1680156105865780820380516001836020036101000a031916815260200191505b50848103835289818151815260200191508051906020019080838360005b838110156105bf5780820151818401526020810190506105a4565b50505050905090810190601f1680156105ec5780820380516001836020036101000a031916815260200191505b50848103825288818151815260200191508051906020019080838360005b8381101561062557808201518184015260208101905061060a565b50505050905090810190601f1680156106525780820380516001836020036101000a031916815260200191505b50995050505050505050505060405180910390f35b61066f611349565b6040518080602001828103825283818151815260200191508051906020019080838360005b838110156106af578082015181840152602081019050610694565b50505050905090810190601f1680156106dc5780820380516001836020036101000a031916815260200191505b509250505060405180910390f35b6106f26113e7565b604051808273ffffffffffffffffffffffffffffffffffffffff1673ffffffffffffffffffffffffffffffffffffffff16815260200191505060405180910390f35b6107f76004803603604081101561074a57600080fd5b810190808035906020019064010000000081111561076757600080fd5b82018360208201111561077957600080fd5b8035906020019184600183028401116401000000008311171561079b57600080fd5b91908080601f016020809104026020016040519081016040528093929190818152602001838380828437600081840152601f19601f8201169050808301925050505050505091929192908035906020019092919050505061140c565b005b61083b6004803603602081101561080f57600080fd5b81019080803573ffffffffffffffffffffffffffffffffffffffff169060200190929190505050611678565b60405180806020018060200180602001871515151581526020018615151515815260200185815260200184810384528a818151815260200191508051906020019080838360005b8381101561089d578082015181840152602081019050610882565b50505050905090810190601f1680156108ca5780820380516001836020036101000a031916815260200191505b50848103835289818151815260200191508051906020019080838360005b838110156109035780820151818401526020810190506108e8565b50505050905090810190601f1680156109305780820380516001836020036101000a031916815260200191505b50848103825288818151815260200191508051906020019080838360005b8381101561096957808201518184015260208101905061094e565b50505050905090810190601f1680156109965780820380516001836020036101000a031916815260200191505b50995050505050505050505060405180910390f35b6109ed600480360360208110156109c157600080fd5b81019080803573ffffffffffffffffffffffffffffffffffffffff169060200190929190505050611896565b005b6109f76119b6565b6040518082815260200191505060405180910390f35b610a156119bc565b604051808215151515815260200191505060405180910390f35b610a376119cf565b005b600460003373ffffffffffffffffffffffffffffffffffffffff1673ffffffffffffffffffffffffffffffffffffffff16815260200190815260200160002060030160019054906101000a900460ff1615610afc576040517f08c379a000000000000000000000000000000000000000000000000000000000815260040180806020018281038252600d8152602001807f416c726561647920766f7465640000000000000000000000000000000000000081525060200191505060405180910390fd5b600460003373ffffffffffffffffffffffffffffffffffffffff1673ffffffffffffffffffffffffffffffffffffffff16815260200190815260200160002060030160009054906101000a900460ff16610bbe576040517f08c379a00000000000000000000000000000000000000000000000000000000081526004018080602001828103825260168152602001807f4e6f7420617574686f72697a656420746f20766f74650000000000000000000081525060200191505060405180910390fd5b600260009054906101000a900460ff16610c23576040517f08c379a000000000000000000000000000000000000000000000000000000000815260040180806020018281038252602d815260200180611c39602d913960400191505060405180910390fd5b80600460003373ffffffffffffffffffffffffffffffffffffffff1673ffffffffffffffffffffffffffffffffffffffff168152602001908152602001600020600401819055506001600460003373ffffffffffffffffffffffffffffffffffffffff1673ffffffffffffffffffffffffffffffffffffffff16815260200190815260200160002060030160016101000a81548160ff021916908315150217905550600160058281548110610cd457fe5b906000526020600020906002020160010160008282540192505081905550600160076000828254019250508190555050565b60075481565b6005805480610d1757fe5b600190038181906000526020600020906002020160008082016000610d3c9190611acb565b600182016000905550509055565b60058181548110610d5757fe5b9060005260206000209060020201600091509050806000018054600181600116156101000203166002900480601f016020809104026020016040519081016040528092919081815260200182805460018160011615610100020316600290048015610e035780601f10610dd857610100808354040283529160200191610e03565b820191906000526020600020905b815481529060010190602001808311610de657829003601f168201915b5050505050908060010154905082565b6000809054906101000a900473ffffffffffffffffffffffffffffffffffffffff1673ffffffffffffffffffffffffffffffffffffffff163373ffffffffffffffffffffffffffffffffffffffff1614610ed5576040517f08c379a000000000000000000000000000000000000000000000000000000000815260040180806020018281038252600f8152602001807f4e6f7420617574686f72697a65642e000000000000000000000000000000000081525060200191505060405180910390fd5b60066040518060c001604052808581526020018481526020018381526020016001151581526020016000151581526020016000815250908060018154018082558091505090600182039060005260206000209060050201600090919290919091506000820151816000019080519060200190610f52929190611b13565b506020820151816001019080519060200190610f6f929190611b13565b506040820151816002019080519060200190610f8c929190611b13565b5060608201518160030160006101000a81548160ff02191690831515021790555060808201518160030160016101000a81548160ff02191690831515021790555060a08201518160040155505050505050565b6000809054906101000a900473ffffffffffffffffffffffffffffffffffffffff1673ffffffffffffffffffffffffffffffffffffffff163373ffffffffffffffffffffffffffffffffffffffff16146110a1576040517f08c379a000000000000000000000000000000000000000000000000000000000815260040180806020018281038252600f8152602001807f4e6f7420617574686f72697a65642e000000000000000000000000000000000081525060200191505060405180910390fd5b600560405180604001604052808381526020016000815250908060018154018082558091505090600182039060005260206000209060020201600090919290919091506000820151816000019080519060200190611100929190611b13565b506020820151816001015550505050565b6000600580549050905090565b6006818154811061112b57fe5b9060005260206000209060050201600091509050806000018054600181600116156101000203166002900480601f0160208091040260200160405190810160405280929190818152602001828054600181600116156101000203166002900480156111d75780601f106111ac576101008083540402835291602001916111d7565b820191906000526020600020905b8154815290600101906020018083116111ba57829003601f168201915b505050505090806001018054600181600116156101000203166002900480601f0160208091040260200160405190810160405280929190818152602001828054600181600116156101000203166002900480156112755780601f1061124a57610100808354040283529160200191611275565b820191906000526020600020905b81548152906001019060200180831161125857829003601f168201915b505050505090806002018054600181600116156101000203166002900480601f0160208091040260200160405190810160405280929190818152602001828054600181600116156101000203166002900480156113135780601f106112e857610100808354040283529160200191611313565b820191906000526020600020905b8154815290600101906020018083116112f657829003601f168201915b5050505050908060030160009054906101000a900460ff16908060030160019054906101000a900460ff16908060040154905086565b60018054600181600116156101000203166002900480601f0160208091040260200160405190810160405280929190818152602001828054600181600116156101000203166002900480156113df5780601f106113b4576101008083540402835291602001916113df565b820191906000526020600020905b8154815290600101906020018083116113c257829003601f168201915b505050505081565b6000809054906101000a900473ffffffffffffffffffffffffffffffffffffffff1681565b8160019080519060200190611422929190611b93565b50806003819055506001600260006101000a81548160ff021916908315150217905550606060018054600181600116156101000203166002900480601f0160208091040260200160405190810160405280929190818152602001828054600181600116156101000203166002900480156114dd5780601f106114b2576101008083540402835291602001916114dd565b820191906000526020600020905b8154815290600101906020018083116114c057829003601f168201915b5050505050905060008151141561155c576040517f08c379a000000000000000000000000000000000000000000000000000000000815260040180806020018281038252601d8152602001807f506c6561736520656e74657220616e20656c656374696f6e206e616d6500000081525060200191505060405180910390fd5b6002600580549050116115ba576040517f08c379a000000000000000000000000000000000000000000000000000000000815260040180806020018281038252602d815260200180611cb9602d913960400191505060405180910390fd5b600260068054905011611618576040517f08c379a0000000000000000000000000000000000000000000000000000000008152600401808060200182810382526029815260200180611c666029913960400191505060405180910390fd5b600060035411611673576040517f08c379a000000000000000000000000000000000000000000000000000000000815260040180806020018281038252602a815260200180611c8f602a913960400191505060405180910390fd5b505050565b6004602052806000526040600020600091509050806000018054600181600116156101000203166002900480601f0160208091040260200160405190810160405280929190818152602001828054600181600116156101000203166002900480156117245780601f106116f957610100808354040283529160200191611724565b820191906000526020600020905b81548152906001019060200180831161170757829003601f168201915b505050505090806001018054600181600116156101000203166002900480601f0160208091040260200160405190810160405280929190818152602001828054600181600116156101000203166002900480156117c25780601f10611797576101008083540402835291602001916117c2565b820191906000526020600020905b8154815290600101906020018083116117a557829003601f168201915b505050505090806002018054600181600116156101000203166002900480601f0160208091040260200160405190810160405280929190818152602001828054600181600116156101000203166002900480156118605780601f1061183557610100808354040283529160200191611860565b820191906000526020600020905b81548152906001019060200180831161184357829003601f168201915b5050505050908060030160009054906101000a900460ff16908060030160019054906101000a900460ff16908060040154905086565b6000809054906101000a900473ffffffffffffffffffffffffffffffffffffffff1673ffffffffffffffffffffffffffffffffffffffff163373ffffffffffffffffffffffffffffffffffffffff1614611958576040517f08c379a000000000000000000000000000000000000000000000000000000000815260040180806020018281038252600f8152602001807f4e6f7420617574686f72697a65642e000000000000000000000000000000000081525060200191505060405180910390fd5b6001600460008373ffffffffffffffffffffffffffffffffffffffff1673ffffffffffffffffffffffffffffffffffffffff16815260200190815260200160002060030160006101000a81548160ff02191690831515021790555050565b60035481565b600260009054906101000a900460ff1681565b6000809054906101000a900473ffffffffffffffffffffffffffffffffffffffff1673ffffffffffffffffffffffffffffffffffffffff163373ffffffffffffffffffffffffffffffffffffffff1614611a91576040517f08c379a000000000000000000000000000000000000000000000000000000000815260040180806020018281038252600f8152602001807f4e6f7420617574686f72697a65642e000000000000000000000000000000000081525060200191505060405180910390fd5b6000809054906101000a900473ffffffffffffffffffffffffffffffffffffffff1673ffffffffffffffffffffffffffffffffffffffff16ff5b50805460018160011615610100020316600290046000825580601f10611af15750611b10565b601f016020900490600052602060002090810190611b0f9190611c13565b5b50565b828054600181600116156101000203166002900490600052602060002090601f016020900481019282601f10611b5457805160ff1916838001178555611b82565b82800160010185558215611b82579182015b82811115611b81578251825591602001919060010190611b66565b5b509050611b8f9190611c13565b5090565b828054600181600116156101000203166002900490600052602060002090601f016020900481019282601f10611bd457805160ff1916838001178555611c02565b82800160010185558215611c02579182015b82811115611c01578251825591602001919060010190611be6565b5b509050611c0f9190611c13565b5090565b611c3591905b80821115611c31576000816000905550600101611c19565b5090565b9056fe54686520656c656374696f6e2068617320656e646564206f7220686173206e6f74207374617274656420796574596f757220656c656374696f6e206d7573742068617665206174206c65617374203220766f74657273506c6561736520656e74657220616e20656e64206461746520666f7220796f757220656c656374696f6e596f757220656c656374696f6e206d7573742068617665206174206c6561737420322063616e64696461746573a265627a7a72315820484b3977b345514a12863ffba3bb72fca378c7058b9fa47c6d53b9306f052ecc64736f6c63430005100032",
  "source": "pragma solidity >=0.5.0 <0.7.0;\n\n\ncontract Voting {\n    /* <------ VARIABLES ------>*/\n    struct Candidate {\n        string name;\n        uint256 voteCount;\n    }\n\n    struct Voter {\n        string name;\n        string email;\n        string password;\n        bool authorized;\n        bool voted;\n        uint256 vote;\n    }\n\n    address payable public owner;\n    string public electionName;\n    bool public ongoingElection;\n    uint256 public endDate;\n\n    mapping(address => Voter) public voters;\n    Candidate[] public candidates;\n    Voter[] public votersList;\n    uint256 public totalVotes;\n\n    /* <------ CONSTRUCTOR ------>*/\n    constructor() public {\n        owner = msg.sender;\n        ongoingElection = false;\n    }\n\n    /* <------ MODIFIERS ------>*/\n    modifier ownerOnly() {\n        require(msg.sender == owner, \"Not authorized.\");\n        _;\n    }\n\n    modifier checkElection() {\n        _;\n        bytes memory tmpElectionName = bytes(electionName);\n        require(tmpElectionName.length != 0, \"Please enter an election name\");\n        require(\n            candidates.length > 2,\n            \"Your election must have at least 2 candidates\"\n        );\n        require(\n            votersList.length > 2,\n            \"Your election must have at least 2 voters\"\n        );\n        require(endDate > 0, \"Please enter an end date for your election\");\n    }\n\n    /* <------ FUNCTIONS ------>*/\n    function startElection(string memory _electionName, uint256 _date)\n        public\n        checkElection\n    {\n        electionName = _electionName;\n        endDate = _date;\n        ongoingElection = true;\n    }\n\n    function addCandidate(string memory _name) public ownerOnly {\n        candidates.push(Candidate({name: _name, voteCount: 0}));\n    }\n\n    function removeCandidate() public /* uint256 _voteIndex */\n    {\n        candidates.pop();\n    }\n\n    function addVoter(\n        string memory _name,\n        string memory _email,\n        string memory _password\n    ) public ownerOnly {\n        votersList.push(Voter({ name: _name, authorized: true, voted: false, vote: 0, email: _email, password: _password}));\n    }\n\n    function getNumberCandidates() public view returns (uint256) {\n        return candidates.length;\n    }\n\n    function authorize(address _person) public ownerOnly {\n        voters[_person].authorized = true;\n    }\n\n    function vote(uint256 _voteIndex) public {\n        require(!voters[msg.sender].voted, \"Already voted\");\n        require(voters[msg.sender].authorized, \"Not authorized to vote\");\n        require(\n            ongoingElection,\n            \"The election has ended or has not started yet\"\n        );\n\n        voters[msg.sender].vote = _voteIndex;\n        voters[msg.sender].voted = true;\n\n        candidates[_voteIndex].voteCount += 1;\n        totalVotes += 1;\n    }\n\n    function end() public ownerOnly {\n        selfdestruct(owner);\n    }\n}\n",
  "sourcePath": "D:\\Projects\\voting-blockchain\\contracts\\Voting.sol",
  "compiler": {
    "name": "solc",
    "version": "0.5.16+commit.9c3226ce.Emscripten.clang"
  },
  "schemaVersion": "3.0.23",
  "updatedAt": "2020-04-03T19:22:41.560Z",
  "devdoc": {
    "methods": {}
  },
  "userdoc": {
    "methods": {}
  }
}